{"contracts/CharityCrowdfunding.sol":{"CharityCrowdfunding":{"abi":[{"anonymous":false,"inputs":[{"indexed":false,"internalType":"uint256","name":"id","type":"uint256"},{"indexed":false,"internalType":"address","name":"donor","type":"address"},{"indexed":false,"internalType":"uint256","name":"amount","type":"uint256"}],"name":"DonationReceived","type":"event"},{"anonymous":false,"inputs":[{"indexed":false,"internalType":"uint256","name":"id","type":"uint256"},{"indexed":false,"internalType":"bool","name":"success","type":"bool"}],"name":"FundraiserClosed","type":"event"},{"anonymous":false,"inputs":[{"indexed":false,"internalType":"uint256","name":"id","type":"uint256"},{"indexed":false,"internalType":"address","name":"recipient","type":"address"},{"indexed":false,"internalType":"uint256","name":"goalAmount","type":"uint256"},{"indexed":false,"internalType":"uint256","name":"deadline","type":"uint256"}],"name":"FundraiserCreated","type":"event"},{"inputs":[{"internalType":"uint256","name":"id","type":"uint256"}],"name":"checkDeadline","outputs":[],"stateMutability":"nonpayable","type":"function"},{"inputs":[{"internalType":"address payable","name":"_recipient","type":"address"},{"internalType":"uint256","name":"_goalAmount","type":"uint256"},{"internalType":"uint256","name":"_duration","type":"uint256"}],"name":"createFundraiser","outputs":[],"stateMutability":"nonpayable","type":"function"},{"inputs":[{"internalType":"uint256","name":"id","type":"uint256"}],"name":"donate","outputs":[],"stateMutability":"payable","type":"function"},{"inputs":[],"name":"fundraiserCount","outputs":[{"internalType":"uint256","name":"","type":"uint256"}],"stateMutability":"view","type":"function"},{"inputs":[{"internalType":"uint256","name":"","type":"uint256"}],"name":"fundraisers","outputs":[{"internalType":"address payable","name":"recipient","type":"address"},{"internalType":"uint256","name":"goalAmount","type":"uint256"},{"internalType":"uint256","name":"deadline","type":"uint256"},{"internalType":"uint256","name":"amountRaised","type":"uint256"},{"internalType":"bool","name":"closed","type":"bool"}],"stateMutability":"view","type":"function"}],"evm":{"bytecode":{"linkReferences":{},"object":"6080604052348015600f57600080fd5b50610d188061001f6000396000f3fe60806040526004361061004a5760003560e01c806337cd09401461004f578063a69909461461007a578063b56b1fd6146100a3578063f14faf6f146100cc578063f38f72fb146100e8575b600080fd5b34801561005b57600080fd5b50610064610129565b6040516100719190610853565b60405180910390f35b34801561008657600080fd5b506100a1600480360381019061009c919061089f565b61012f565b005b3480156100af57600080fd5b506100ca60048036038101906100c5919061092a565b6101eb565b005b6100e660048036038101906100e1919061089f565b6102e1565b005b3480156100f457600080fd5b5061010f600480360381019061010a919061089f565b61051e565b6040516101209594939291906109a7565b60405180910390f35b60015481565b8060008082815260200190815260200160002060040160009054906101000a900460ff1615610193576040517f08c379a000000000000000000000000000000000000000000000000000000000815260040161018a90610a57565b60405180910390fd5b6000808381526020019081526020016000206002015442106101e7576101e68260008085815260200190815260200160002060010154600080868152602001908152602001600020600301541015610581565b5b5050565b600160008154809291906101fe90610aa6565b9190505550600080600060015481526020019081526020016000209050838160000160006101000a81548173ffffffffffffffffffffffffffffffffffffffff021916908373ffffffffffffffffffffffffffffffffffffffff16021790555082816001018190555081426102739190610aee565b816002018190555060008160040160006101000a81548160ff0219169083151502179055507f4b54696510e948513db22b55242041175ae8be7658712a4da84b83eee7c336fd600154858584600201546040516102d39493929190610b81565b60405180910390a150505050565b8060008082815260200190815260200160002060040160009054906101000a900460ff1615610345576040517f08c379a000000000000000000000000000000000000000000000000000000000815260040161033c90610a57565b60405180910390fd5b60008060008481526020019081526020016000209050806002015442106103a1576040517f08c379a000000000000000000000000000000000000000000000000000000000815260040161039890610c12565b60405180910390fd5b60008160050160003373ffffffffffffffffffffffffffffffffffffffff1673ffffffffffffffffffffffffffffffffffffffff16815260200190815260200160002054036104505780600601339080600181540180825580915050600190039060005260206000200160009091909190916101000a81548173ffffffffffffffffffffffffffffffffffffffff021916908373ffffffffffffffffffffffffffffffffffffffff1602179055505b348160050160003373ffffffffffffffffffffffffffffffffffffffff1673ffffffffffffffffffffffffffffffffffffffff16815260200190815260200160002060008282546104a19190610aee565b92505081905550348160030160008282546104bc9190610aee565b925050819055507f0b5b4c52969ff7329ecf7ee536409fda87812b15a8622bc6e8cdeab3aee14a268333346040516104f693929190610c53565b60405180910390a1806001015481600301541061051957610518836001610581565b5b505050565b60006020528060005260406000206000915090508060000160009054906101000a900473ffffffffffffffffffffffffffffffffffffffff16908060010154908060020154908060030154908060040160009054906101000a900460ff16905085565b8160008082815260200190815260200160002060040160009054906101000a900460ff16156105e5576040517f08c379a00000000000000000000000000000000000000000000000000000000081526004016105dc90610a57565b60405180910390fd5b6000806000858152602001908152602001600020905060018160040160006101000a81548160ff0219169083151502179055508215610692578060000160009054906101000a900473ffffffffffffffffffffffffffffffffffffffff1673ffffffffffffffffffffffffffffffffffffffff166108fc82600301549081150290604051600060405180830381858888f1935050505015801561068c573d6000803e3d6000fd5b5061069c565b61069b846106db565b5b7fc83325f9cf6b1978f8e9eca15ddefc1ac695535caec81c73db0b49907e98e4fd84846040516106cd929190610c8a565b60405180910390a150505050565b6000806000838152602001908152602001600020905060005b816006018054905081101561083557600082600601828154811061071b5761071a610cb3565b5b9060005260206000200160009054906101000a900473ffffffffffffffffffffffffffffffffffffffff16905060008360050160008373ffffffffffffffffffffffffffffffffffffffff1673ffffffffffffffffffffffffffffffffffffffff16815260200190815260200160002054905060008111156108265760008460050160008473ffffffffffffffffffffffffffffffffffffffff1673ffffffffffffffffffffffffffffffffffffffff168152602001908152602001600020819055508173ffffffffffffffffffffffffffffffffffffffff166108fc829081150290604051600060405180830381858888f19350505050158015610824573d6000803e3d6000fd5b505b505080806001019150506106f4565b505050565b6000819050919050565b61084d8161083a565b82525050565b60006020820190506108686000830184610844565b92915050565b600080fd5b61087c8161083a565b811461088757600080fd5b50565b60008135905061089981610873565b92915050565b6000602082840312156108b5576108b461086e565b5b60006108c38482850161088a565b91505092915050565b600073ffffffffffffffffffffffffffffffffffffffff82169050919050565b60006108f7826108cc565b9050919050565b610907816108ec565b811461091257600080fd5b50565b600081359050610924816108fe565b92915050565b6000806000606084860312156109435761094261086e565b5b600061095186828701610915565b93505060206109628682870161088a565b92505060406109738682870161088a565b9150509250925092565b610986816108ec565b82525050565b60008115159050919050565b6109a18161098c565b82525050565b600060a0820190506109bc600083018861097d565b6109c96020830187610844565b6109d66040830186610844565b6109e36060830185610844565b6109f06080830184610998565b9695505050505050565b600082825260208201905092915050565b7f46756e6472616973657220697320636c6f7365642e0000000000000000000000600082015250565b6000610a416015836109fa565b9150610a4c82610a0b565b602082019050919050565b60006020820190508181036000830152610a7081610a34565b9050919050565b7f4e487b7100000000000000000000000000000000000000000000000000000000600052601160045260246000fd5b6000610ab18261083a565b91507fffffffffffffffffffffffffffffffffffffffffffffffffffffffffffffffff8203610ae357610ae2610a77565b5b600182019050919050565b6000610af98261083a565b9150610b048361083a565b9250828201905080821115610b1c57610b1b610a77565b5b92915050565b6000819050919050565b6000610b47610b42610b3d846108cc565b610b22565b6108cc565b9050919050565b6000610b5982610b2c565b9050919050565b6000610b6b82610b4e565b9050919050565b610b7b81610b60565b82525050565b6000608082019050610b966000830187610844565b610ba36020830186610b72565b610bb06040830185610844565b610bbd6060830184610844565b95945050505050565b7f46756e647261697365722068617320656e6465642e0000000000000000000000600082015250565b6000610bfc6015836109fa565b9150610c0782610bc6565b602082019050919050565b60006020820190508181036000830152610c2b81610bef565b9050919050565b6000610c3d826108cc565b9050919050565b610c4d81610c32565b82525050565b6000606082019050610c686000830186610844565b610c756020830185610c44565b610c826040830184610844565b949350505050565b6000604082019050610c9f6000830185610844565b610cac6020830184610998565b9392505050565b7f4e487b7100000000000000000000000000000000000000000000000000000000600052603260045260246000fdfea26469706673582212204886f5616eea8352c108e2d457c5241a09f4b570ae75e0db3b937b30e15816f564736f6c634300081b0033","opcodes":"PUSH1 0x80 PUSH1 0x40 MSTORE CALLVALUE DUP1 ISZERO PUSH1 0xF JUMPI PUSH1 0x0 DUP1 REVERT JUMPDEST POP PUSH2 0xD18 DUP1 PUSH2 0x1F PUSH1 0x0 CODECOPY PUSH1 0x0 RETURN INVALID PUSH1 0x80 PUSH1 0x40 MSTORE PUSH1 0x4 CALLDATASIZE LT PUSH2 0x4A JUMPI PUSH1 0x0 CALLDATALOAD PUSH1 0xE0 SHR DUP1 PUSH4 0x37CD0940 EQ PUSH2 0x4F JUMPI DUP1 PUSH4 0xA6990946 EQ PUSH2 0x7A JUMPI DUP1 PUSH4 0xB56B1FD6 EQ PUSH2 0xA3 JUMPI DUP1 PUSH4 0xF14FAF6F EQ PUSH2 0xCC JUMPI DUP1 PUSH4 0xF38F72FB EQ PUSH2 0xE8 JUMPI JUMPDEST PUSH1 0x0 DUP1 REVERT JUMPDEST CALLVALUE DUP1 ISZERO PUSH2 0x5B JUMPI PUSH1 0x0 DUP1 REVERT JUMPDEST POP PUSH2 0x64 PUSH2 0x129 JUMP JUMPDEST PUSH1 0x40 MLOAD PUSH2 0x71 SWAP2 SWAP1 PUSH2 0x853 JUMP JUMPDEST PUSH1 0x40 MLOAD DUP1 SWAP2 SUB SWAP1 RETURN JUMPDEST CALLVALUE DUP1 ISZERO PUSH2 0x86 JUMPI PUSH1 0x0 DUP1 REVERT JUMPDEST POP PUSH2 0xA1 PUSH1 0x4 DUP1 CALLDATASIZE SUB DUP2 ADD SWAP1 PUSH2 0x9C SWAP2 SWAP1 PUSH2 0x89F JUMP JUMPDEST PUSH2 0x12F JUMP JUMPDEST STOP JUMPDEST CALLVALUE DUP1 ISZERO PUSH2 0xAF JUMPI PUSH1 0x0 DUP1 REVERT JUMPDEST POP PUSH2 0xCA PUSH1 0x4 DUP1 CALLDATASIZE SUB DUP2 ADD SWAP1 PUSH2 0xC5 SWAP2 SWAP1 PUSH2 0x92A JUMP JUMPDEST PUSH2 0x1EB JUMP JUMPDEST STOP JUMPDEST PUSH2 0xE6 PUSH1 0x4 DUP1 CALLDATASIZE SUB DUP2 ADD SWAP1 PUSH2 0xE1 SWAP2 SWAP1 PUSH2 0x89F JUMP JUMPDEST PUSH2 0x2E1 JUMP JUMPDEST STOP JUMPDEST CALLVALUE DUP1 ISZERO PUSH2 0xF4 JUMPI PUSH1 0x0 DUP1 REVERT JUMPDEST POP PUSH2 0x10F PUSH1 0x4 DUP1 CALLDATASIZE SUB DUP2 ADD SWAP1 PUSH2 0x10A SWAP2 SWAP1 PUSH2 0x89F JUMP JUMPDEST PUSH2 0x51E JUMP JUMPDEST PUSH1 0x40 MLOAD PUSH2 0x120 SWAP6 SWAP5 SWAP4 SWAP3 SWAP2 SWAP1 PUSH2 0x9A7 JUMP JUMPDEST PUSH1 0x40 MLOAD DUP1 SWAP2 SUB SWAP1 RETURN JUMPDEST PUSH1 0x1 SLOAD DUP2 JUMP JUMPDEST DUP1 PUSH1 0x0 DUP1 DUP3 DUP2 MSTORE PUSH1 0x20 ADD SWAP1 DUP2 MSTORE PUSH1 0x20 ADD PUSH1 0x0 KECCAK256 PUSH1 0x4 ADD PUSH1 0x0 SWAP1 SLOAD SWAP1 PUSH2 0x100 EXP SWAP1 DIV PUSH1 0xFF AND ISZERO PUSH2 0x193 JUMPI PUSH1 0x40 MLOAD PUSH32 0x8C379A000000000000000000000000000000000000000000000000000000000 DUP2 MSTORE PUSH1 0x4 ADD PUSH2 0x18A SWAP1 PUSH2 0xA57 JUMP JUMPDEST PUSH1 0x40 MLOAD DUP1 SWAP2 SUB SWAP1 REVERT JUMPDEST PUSH1 0x0 DUP1 DUP4 DUP2 MSTORE PUSH1 0x20 ADD SWAP1 DUP2 MSTORE PUSH1 0x20 ADD PUSH1 0x0 KECCAK256 PUSH1 0x2 ADD SLOAD TIMESTAMP LT PUSH2 0x1E7 JUMPI PUSH2 0x1E6 DUP3 PUSH1 0x0 DUP1 DUP6 DUP2 MSTORE PUSH1 0x20 ADD SWAP1 DUP2 MSTORE PUSH1 0x20 ADD PUSH1 0x0 KECCAK256 PUSH1 0x1 ADD SLOAD PUSH1 0x0 DUP1 DUP7 DUP2 MSTORE PUSH1 0x20 ADD SWAP1 DUP2 MSTORE PUSH1 0x20 ADD PUSH1 0x0 KECCAK256 PUSH1 0x3 ADD SLOAD LT ISZERO PUSH2 0x581 JUMP JUMPDEST JUMPDEST POP POP JUMP JUMPDEST PUSH1 0x1 PUSH1 0x0 DUP2 SLOAD DUP1 SWAP3 SWAP2 SWAP1 PUSH2 0x1FE SWAP1 PUSH2 0xAA6 JUMP JUMPDEST SWAP2 SWAP1 POP SSTORE POP PUSH1 0x0 DUP1 PUSH1 0x0 PUSH1 0x1 SLOAD DUP2 MSTORE PUSH1 0x20 ADD SWAP1 DUP2 MSTORE PUSH1 0x20 ADD PUSH1 0x0 KECCAK256 SWAP1 POP DUP4 DUP2 PUSH1 0x0 ADD PUSH1 0x0 PUSH2 0x100 EXP DUP2 SLOAD DUP2 PUSH20 0xFFFFFFFFFFFFFFFFFFFFFFFFFFFFFFFFFFFFFFFF MUL NOT AND SWAP1 DUP4 PUSH20 0xFFFFFFFFFFFFFFFFFFFFFFFFFFFFFFFFFFFFFFFF AND MUL OR SWAP1 SSTORE POP DUP3 DUP2 PUSH1 0x1 ADD DUP2 SWAP1 SSTORE POP DUP2 TIMESTAMP PUSH2 0x273 SWAP2 SWAP1 PUSH2 0xAEE JUMP JUMPDEST DUP2 PUSH1 0x2 ADD DUP2 SWAP1 SSTORE POP PUSH1 0x0 DUP2 PUSH1 0x4 ADD PUSH1 0x0 PUSH2 0x100 EXP DUP2 SLOAD DUP2 PUSH1 0xFF MUL NOT AND SWAP1 DUP4 ISZERO ISZERO MUL OR SWAP1 SSTORE POP PUSH32 0x4B54696510E948513DB22B55242041175AE8BE7658712A4DA84B83EEE7C336FD PUSH1 0x1 SLOAD DUP6 DUP6 DUP5 PUSH1 0x2 ADD SLOAD PUSH1 0x40 MLOAD PUSH2 0x2D3 SWAP5 SWAP4 SWAP3 SWAP2 SWAP1 PUSH2 0xB81 JUMP JUMPDEST PUSH1 0x40 MLOAD DUP1 SWAP2 SUB SWAP1 LOG1 POP POP POP POP JUMP JUMPDEST DUP1 PUSH1 0x0 DUP1 DUP3 DUP2 MSTORE PUSH1 0x20 ADD SWAP1 DUP2 MSTORE PUSH1 0x20 ADD PUSH1 0x0 KECCAK256 PUSH1 0x4 ADD PUSH1 0x0 SWAP1 SLOAD SWAP1 PUSH2 0x100 EXP SWAP1 DIV PUSH1 0xFF AND ISZERO PUSH2 0x345 JUMPI PUSH1 0x40 MLOAD PUSH32 0x8C379A000000000000000000000000000000000000000000000000000000000 DUP2 MSTORE PUSH1 0x4 ADD PUSH2 0x33C SWAP1 PUSH2 0xA57 JUMP JUMPDEST PUSH1 0x40 MLOAD DUP1 SWAP2 SUB SWAP1 REVERT JUMPDEST PUSH1 0x0 DUP1 PUSH1 0x0 DUP5 DUP2 MSTORE PUSH1 0x20 ADD SWAP1 DUP2 MSTORE PUSH1 0x20 ADD PUSH1 0x0 KECCAK256 SWAP1 POP DUP1 PUSH1 0x2 ADD SLOAD TIMESTAMP LT PUSH2 0x3A1 JUMPI PUSH1 0x40 MLOAD PUSH32 0x8C379A000000000000000000000000000000000000000000000000000000000 DUP2 MSTORE PUSH1 0x4 ADD PUSH2 0x398 SWAP1 PUSH2 0xC12 JUMP JUMPDEST PUSH1 0x40 MLOAD DUP1 SWAP2 SUB SWAP1 REVERT JUMPDEST PUSH1 0x0 DUP2 PUSH1 0x5 ADD PUSH1 0x0 CALLER PUSH20 0xFFFFFFFFFFFFFFFFFFFFFFFFFFFFFFFFFFFFFFFF AND PUSH20 0xFFFFFFFFFFFFFFFFFFFFFFFFFFFFFFFFFFFFFFFF AND DUP2 MSTORE PUSH1 0x20 ADD SWAP1 DUP2 MSTORE PUSH1 0x20 ADD PUSH1 0x0 KECCAK256 SLOAD SUB PUSH2 0x450 JUMPI DUP1 PUSH1 0x6 ADD CALLER SWAP1 DUP1 PUSH1 0x1 DUP2 SLOAD ADD DUP1 DUP3 SSTORE DUP1 SWAP2 POP POP PUSH1 0x1 SWAP1 SUB SWAP1 PUSH1 0x0 MSTORE PUSH1 0x20 PUSH1 0x0 KECCAK256 ADD PUSH1 0x0 SWAP1 SWAP2 SWAP1 SWAP2 SWAP1 SWAP2 PUSH2 0x100 EXP DUP2 SLOAD DUP2 PUSH20 0xFFFFFFFFFFFFFFFFFFFFFFFFFFFFFFFFFFFFFFFF MUL NOT AND SWAP1 DUP4 PUSH20 0xFFFFFFFFFFFFFFFFFFFFFFFFFFFFFFFFFFFFFFFF AND MUL OR SWAP1 SSTORE POP JUMPDEST CALLVALUE DUP2 PUSH1 0x5 ADD PUSH1 0x0 CALLER PUSH20 0xFFFFFFFFFFFFFFFFFFFFFFFFFFFFFFFFFFFFFFFF AND PUSH20 0xFFFFFFFFFFFFFFFFFFFFFFFFFFFFFFFFFFFFFFFF AND DUP2 MSTORE PUSH1 0x20 ADD SWAP1 DUP2 MSTORE PUSH1 0x20 ADD PUSH1 0x0 KECCAK256 PUSH1 0x0 DUP3 DUP3 SLOAD PUSH2 0x4A1 SWAP2 SWAP1 PUSH2 0xAEE JUMP JUMPDEST SWAP3 POP POP DUP2 SWAP1 SSTORE POP CALLVALUE DUP2 PUSH1 0x3 ADD PUSH1 0x0 DUP3 DUP3 SLOAD PUSH2 0x4BC SWAP2 SWAP1 PUSH2 0xAEE JUMP JUMPDEST SWAP3 POP POP DUP2 SWAP1 SSTORE POP PUSH32 0xB5B4C52969FF7329ECF7EE536409FDA87812B15A8622BC6E8CDEAB3AEE14A26 DUP4 CALLER CALLVALUE PUSH1 0x40 MLOAD PUSH2 0x4F6 SWAP4 SWAP3 SWAP2 SWAP1 PUSH2 0xC53 JUMP JUMPDEST PUSH1 0x40 MLOAD DUP1 SWAP2 SUB SWAP1 LOG1 DUP1 PUSH1 0x1 ADD SLOAD DUP2 PUSH1 0x3 ADD SLOAD LT PUSH2 0x519 JUMPI PUSH2 0x518 DUP4 PUSH1 0x1 PUSH2 0x581 JUMP JUMPDEST JUMPDEST POP POP POP JUMP JUMPDEST PUSH1 0x0 PUSH1 0x20 MSTORE DUP1 PUSH1 0x0 MSTORE PUSH1 0x40 PUSH1 0x0 KECCAK256 PUSH1 0x0 SWAP2 POP SWAP1 POP DUP1 PUSH1 0x0 ADD PUSH1 0x0 SWAP1 SLOAD SWAP1 PUSH2 0x100 EXP SWAP1 DIV PUSH20 0xFFFFFFFFFFFFFFFFFFFFFFFFFFFFFFFFFFFFFFFF AND SWAP1 DUP1 PUSH1 0x1 ADD SLOAD SWAP1 DUP1 PUSH1 0x2 ADD SLOAD SWAP1 DUP1 PUSH1 0x3 ADD SLOAD SWAP1 DUP1 PUSH1 0x4 ADD PUSH1 0x0 SWAP1 SLOAD SWAP1 PUSH2 0x100 EXP SWAP1 DIV PUSH1 0xFF AND SWAP1 POP DUP6 JUMP JUMPDEST DUP2 PUSH1 0x0 DUP1 DUP3 DUP2 MSTORE PUSH1 0x20 ADD SWAP1 DUP2 MSTORE PUSH1 0x20 ADD PUSH1 0x0 KECCAK256 PUSH1 0x4 ADD PUSH1 0x0 SWAP1 SLOAD SWAP1 PUSH2 0x100 EXP SWAP1 DIV PUSH1 0xFF AND ISZERO PUSH2 0x5E5 JUMPI PUSH1 0x40 MLOAD PUSH32 0x8C379A000000000000000000000000000000000000000000000000000000000 DUP2 MSTORE PUSH1 0x4 ADD PUSH2 0x5DC SWAP1 PUSH2 0xA57 JUMP JUMPDEST PUSH1 0x40 MLOAD DUP1 SWAP2 SUB SWAP1 REVERT JUMPDEST PUSH1 0x0 DUP1 PUSH1 0x0 DUP6 DUP2 MSTORE PUSH1 0x20 ADD SWAP1 DUP2 MSTORE PUSH1 0x20 ADD PUSH1 0x0 KECCAK256 SWAP1 POP PUSH1 0x1 DUP2 PUSH1 0x4 ADD PUSH1 0x0 PUSH2 0x100 EXP DUP2 SLOAD DUP2 PUSH1 0xFF MUL NOT AND SWAP1 DUP4 ISZERO ISZERO MUL OR SWAP1 SSTORE POP DUP3 ISZERO PUSH2 0x692 JUMPI DUP1 PUSH1 0x0 ADD PUSH1 0x0 SWAP1 SLOAD SWAP1 PUSH2 0x100 EXP SWAP1 DIV PUSH20 0xFFFFFFFFFFFFFFFFFFFFFFFFFFFFFFFFFFFFFFFF AND PUSH20 0xFFFFFFFFFFFFFFFFFFFFFFFFFFFFFFFFFFFFFFFF AND PUSH2 0x8FC DUP3 PUSH1 0x3 ADD SLOAD SWAP1 DUP2 ISZERO MUL SWAP1 PUSH1 0x40 MLOAD PUSH1 0x0 PUSH1 0x40 MLOAD DUP1 DUP4 SUB DUP2 DUP6 DUP9 DUP9 CALL SWAP4 POP POP POP POP ISZERO DUP1 ISZERO PUSH2 0x68C JUMPI RETURNDATASIZE PUSH1 0x0 DUP1 RETURNDATACOPY RETURNDATASIZE PUSH1 0x0 REVERT JUMPDEST POP PUSH2 0x69C JUMP JUMPDEST PUSH2 0x69B DUP5 PUSH2 0x6DB JUMP JUMPDEST JUMPDEST PUSH32 0xC83325F9CF6B1978F8E9ECA15DDEFC1AC695535CAEC81C73DB0B49907E98E4FD DUP5 DUP5 PUSH1 0x40 MLOAD PUSH2 0x6CD SWAP3 SWAP2 SWAP1 PUSH2 0xC8A JUMP JUMPDEST PUSH1 0x40 MLOAD DUP1 SWAP2 SUB SWAP1 LOG1 POP POP POP POP JUMP JUMPDEST PUSH1 0x0 DUP1 PUSH1 0x0 DUP4 DUP2 MSTORE PUSH1 0x20 ADD SWAP1 DUP2 MSTORE PUSH1 0x20 ADD PUSH1 0x0 KECCAK256 SWAP1 POP PUSH1 0x0 JUMPDEST DUP2 PUSH1 0x6 ADD DUP1 SLOAD SWAP1 POP DUP2 LT ISZERO PUSH2 0x835 JUMPI PUSH1 0x0 DUP3 PUSH1 0x6 ADD DUP3 DUP2 SLOAD DUP2 LT PUSH2 0x71B JUMPI PUSH2 0x71A PUSH2 0xCB3 JUMP JUMPDEST JUMPDEST SWAP1 PUSH1 0x0 MSTORE PUSH1 0x20 PUSH1 0x0 KECCAK256 ADD PUSH1 0x0 SWAP1 SLOAD SWAP1 PUSH2 0x100 EXP SWAP1 DIV PUSH20 0xFFFFFFFFFFFFFFFFFFFFFFFFFFFFFFFFFFFFFFFF AND SWAP1 POP PUSH1 0x0 DUP4 PUSH1 0x5 ADD PUSH1 0x0 DUP4 PUSH20 0xFFFFFFFFFFFFFFFFFFFFFFFFFFFFFFFFFFFFFFFF AND PUSH20 0xFFFFFFFFFFFFFFFFFFFFFFFFFFFFFFFFFFFFFFFF AND DUP2 MSTORE PUSH1 0x20 ADD SWAP1 DUP2 MSTORE PUSH1 0x20 ADD PUSH1 0x0 KECCAK256 SLOAD SWAP1 POP PUSH1 0x0 DUP2 GT ISZERO PUSH2 0x826 JUMPI PUSH1 0x0 DUP5 PUSH1 0x5 ADD PUSH1 0x0 DUP5 PUSH20 0xFFFFFFFFFFFFFFFFFFFFFFFFFFFFFFFFFFFFFFFF AND PUSH20 0xFFFFFFFFFFFFFFFFFFFFFFFFFFFFFFFFFFFFFFFF AND DUP2 MSTORE PUSH1 0x20 ADD SWAP1 DUP2 MSTORE PUSH1 0x20 ADD PUSH1 0x0 KECCAK256 DUP2 SWAP1 SSTORE POP DUP2 PUSH20 0xFFFFFFFFFFFFFFFFFFFFFFFFFFFFFFFFFFFFFFFF AND PUSH2 0x8FC DUP3 SWAP1 DUP2 ISZERO MUL SWAP1 PUSH1 0x40 MLOAD PUSH1 0x0 PUSH1 0x40 MLOAD DUP1 DUP4 SUB DUP2 DUP6 DUP9 DUP9 CALL SWAP4 POP POP POP POP ISZERO DUP1 ISZERO PUSH2 0x824 JUMPI RETURNDATASIZE PUSH1 0x0 DUP1 RETURNDATACOPY RETURNDATASIZE PUSH1 0x0 REVERT JUMPDEST POP JUMPDEST POP POP DUP1 DUP1 PUSH1 0x1 ADD SWAP2 POP POP PUSH2 0x6F4 JUMP JUMPDEST POP POP POP JUMP JUMPDEST PUSH1 0x0 DUP2 SWAP1 POP SWAP2 SWAP1 POP JUMP JUMPDEST PUSH2 0x84D DUP2 PUSH2 0x83A JUMP JUMPDEST DUP3 MSTORE POP POP JUMP JUMPDEST PUSH1 0x0 PUSH1 0x20 DUP3 ADD SWAP1 POP PUSH2 0x868 PUSH1 0x0 DUP4 ADD DUP5 PUSH2 0x844 JUMP JUMPDEST SWAP3 SWAP2 POP POP JUMP JUMPDEST PUSH1 0x0 DUP1 REVERT JUMPDEST PUSH2 0x87C DUP2 PUSH2 0x83A JUMP JUMPDEST DUP2 EQ PUSH2 0x887 JUMPI PUSH1 0x0 DUP1 REVERT JUMPDEST POP JUMP JUMPDEST PUSH1 0x0 DUP2 CALLDATALOAD SWAP1 POP PUSH2 0x899 DUP2 PUSH2 0x873 JUMP JUMPDEST SWAP3 SWAP2 POP POP JUMP JUMPDEST PUSH1 0x0 PUSH1 0x20 DUP3 DUP5 SUB SLT ISZERO PUSH2 0x8B5 JUMPI PUSH2 0x8B4 PUSH2 0x86E JUMP JUMPDEST JUMPDEST PUSH1 0x0 PUSH2 0x8C3 DUP5 DUP3 DUP6 ADD PUSH2 0x88A JUMP JUMPDEST SWAP2 POP POP SWAP3 SWAP2 POP POP JUMP JUMPDEST PUSH1 0x0 PUSH20 0xFFFFFFFFFFFFFFFFFFFFFFFFFFFFFFFFFFFFFFFF DUP3 AND SWAP1 POP SWAP2 SWAP1 POP JUMP JUMPDEST PUSH1 0x0 PUSH2 0x8F7 DUP3 PUSH2 0x8CC JUMP JUMPDEST SWAP1 POP SWAP2 SWAP1 POP JUMP JUMPDEST PUSH2 0x907 DUP2 PUSH2 0x8EC JUMP JUMPDEST DUP2 EQ PUSH2 0x912 JUMPI PUSH1 0x0 DUP1 REVERT JUMPDEST POP JUMP JUMPDEST PUSH1 0x0 DUP2 CALLDATALOAD SWAP1 POP PUSH2 0x924 DUP2 PUSH2 0x8FE JUMP JUMPDEST SWAP3 SWAP2 POP POP JUMP JUMPDEST PUSH1 0x0 DUP1 PUSH1 0x0 PUSH1 0x60 DUP5 DUP7 SUB SLT ISZERO PUSH2 0x943 JUMPI PUSH2 0x942 PUSH2 0x86E JUMP JUMPDEST JUMPDEST PUSH1 0x0 PUSH2 0x951 DUP7 DUP3 DUP8 ADD PUSH2 0x915 JUMP JUMPDEST SWAP4 POP POP PUSH1 0x20 PUSH2 0x962 DUP7 DUP3 DUP8 ADD PUSH2 0x88A JUMP JUMPDEST SWAP3 POP POP PUSH1 0x40 PUSH2 0x973 DUP7 DUP3 DUP8 ADD PUSH2 0x88A JUMP JUMPDEST SWAP2 POP POP SWAP3 POP SWAP3 POP SWAP3 JUMP JUMPDEST PUSH2 0x986 DUP2 PUSH2 0x8EC JUMP JUMPDEST DUP3 MSTORE POP POP JUMP JUMPDEST PUSH1 0x0 DUP2 ISZERO ISZERO SWAP1 POP SWAP2 SWAP1 POP JUMP JUMPDEST PUSH2 0x9A1 DUP2 PUSH2 0x98C JUMP JUMPDEST DUP3 MSTORE POP POP JUMP JUMPDEST PUSH1 0x0 PUSH1 0xA0 DUP3 ADD SWAP1 POP PUSH2 0x9BC PUSH1 0x0 DUP4 ADD DUP9 PUSH2 0x97D JUMP JUMPDEST PUSH2 0x9C9 PUSH1 0x20 DUP4 ADD DUP8 PUSH2 0x844 JUMP JUMPDEST PUSH2 0x9D6 PUSH1 0x40 DUP4 ADD DUP7 PUSH2 0x844 JUMP JUMPDEST PUSH2 0x9E3 PUSH1 0x60 DUP4 ADD DUP6 PUSH2 0x844 JUMP JUMPDEST PUSH2 0x9F0 PUSH1 0x80 DUP4 ADD DUP5 PUSH2 0x998 JUMP JUMPDEST SWAP7 SWAP6 POP POP POP POP POP POP JUMP JUMPDEST PUSH1 0x0 DUP3 DUP3 MSTORE PUSH1 0x20 DUP3 ADD SWAP1 POP SWAP3 SWAP2 POP POP JUMP JUMPDEST PUSH32 0x46756E6472616973657220697320636C6F7365642E0000000000000000000000 PUSH1 0x0 DUP3 ADD MSTORE POP JUMP JUMPDEST PUSH1 0x0 PUSH2 0xA41 PUSH1 0x15 DUP4 PUSH2 0x9FA JUMP JUMPDEST SWAP2 POP PUSH2 0xA4C DUP3 PUSH2 0xA0B JUMP JUMPDEST PUSH1 0x20 DUP3 ADD SWAP1 POP SWAP2 SWAP1 POP JUMP JUMPDEST PUSH1 0x0 PUSH1 0x20 DUP3 ADD SWAP1 POP DUP2 DUP2 SUB PUSH1 0x0 DUP4 ADD MSTORE PUSH2 0xA70 DUP2 PUSH2 0xA34 JUMP JUMPDEST SWAP1 POP SWAP2 SWAP1 POP JUMP JUMPDEST PUSH32 0x4E487B7100000000000000000000000000000000000000000000000000000000 PUSH1 0x0 MSTORE PUSH1 0x11 PUSH1 0x4 MSTORE PUSH1 0x24 PUSH1 0x0 REVERT JUMPDEST PUSH1 0x0 PUSH2 0xAB1 DUP3 PUSH2 0x83A JUMP JUMPDEST SWAP2 POP PUSH32 0xFFFFFFFFFFFFFFFFFFFFFFFFFFFFFFFFFFFFFFFFFFFFFFFFFFFFFFFFFFFFFFFF DUP3 SUB PUSH2 0xAE3 JUMPI PUSH2 0xAE2 PUSH2 0xA77 JUMP JUMPDEST JUMPDEST PUSH1 0x1 DUP3 ADD SWAP1 POP SWAP2 SWAP1 POP JUMP JUMPDEST PUSH1 0x0 PUSH2 0xAF9 DUP3 PUSH2 0x83A JUMP JUMPDEST SWAP2 POP PUSH2 0xB04 DUP4 PUSH2 0x83A JUMP JUMPDEST SWAP3 POP DUP3 DUP3 ADD SWAP1 POP DUP1 DUP3 GT ISZERO PUSH2 0xB1C JUMPI PUSH2 0xB1B PUSH2 0xA77 JUMP JUMPDEST JUMPDEST SWAP3 SWAP2 POP POP JUMP JUMPDEST PUSH1 0x0 DUP2 SWAP1 POP SWAP2 SWAP1 POP JUMP JUMPDEST PUSH1 0x0 PUSH2 0xB47 PUSH2 0xB42 PUSH2 0xB3D DUP5 PUSH2 0x8CC JUMP JUMPDEST PUSH2 0xB22 JUMP JUMPDEST PUSH2 0x8CC JUMP JUMPDEST SWAP1 POP SWAP2 SWAP1 POP JUMP JUMPDEST PUSH1 0x0 PUSH2 0xB59 DUP3 PUSH2 0xB2C JUMP JUMPDEST SWAP1 POP SWAP2 SWAP1 POP JUMP JUMPDEST PUSH1 0x0 PUSH2 0xB6B DUP3 PUSH2 0xB4E JUMP JUMPDEST SWAP1 POP SWAP2 SWAP1 POP JUMP JUMPDEST PUSH2 0xB7B DUP2 PUSH2 0xB60 JUMP JUMPDEST DUP3 MSTORE POP POP JUMP JUMPDEST PUSH1 0x0 PUSH1 0x80 DUP3 ADD SWAP1 POP PUSH2 0xB96 PUSH1 0x0 DUP4 ADD DUP8 PUSH2 0x844 JUMP JUMPDEST PUSH2 0xBA3 PUSH1 0x20 DUP4 ADD DUP7 PUSH2 0xB72 JUMP JUMPDEST PUSH2 0xBB0 PUSH1 0x40 DUP4 ADD DUP6 PUSH2 0x844 JUMP JUMPDEST PUSH2 0xBBD PUSH1 0x60 DUP4 ADD DUP5 PUSH2 0x844 JUMP JUMPDEST SWAP6 SWAP5 POP POP POP POP POP JUMP JUMPDEST PUSH32 0x46756E647261697365722068617320656E6465642E0000000000000000000000 PUSH1 0x0 DUP3 ADD MSTORE POP JUMP JUMPDEST PUSH1 0x0 PUSH2 0xBFC PUSH1 0x15 DUP4 PUSH2 0x9FA JUMP JUMPDEST SWAP2 POP PUSH2 0xC07 DUP3 PUSH2 0xBC6 JUMP JUMPDEST PUSH1 0x20 DUP3 ADD SWAP1 POP SWAP2 SWAP1 POP JUMP JUMPDEST PUSH1 0x0 PUSH1 0x20 DUP3 ADD SWAP1 POP DUP2 DUP2 SUB PUSH1 0x0 DUP4 ADD MSTORE PUSH2 0xC2B DUP2 PUSH2 0xBEF JUMP JUMPDEST SWAP1 POP SWAP2 SWAP1 POP JUMP JUMPDEST PUSH1 0x0 PUSH2 0xC3D DUP3 PUSH2 0x8CC JUMP JUMPDEST SWAP1 POP SWAP2 SWAP1 POP JUMP JUMPDEST PUSH2 0xC4D DUP2 PUSH2 0xC32 JUMP JUMPDEST DUP3 MSTORE POP POP JUMP JUMPDEST PUSH1 0x0 PUSH1 0x60 DUP3 ADD SWAP1 POP PUSH2 0xC68 PUSH1 0x0 DUP4 ADD DUP7 PUSH2 0x844 JUMP JUMPDEST PUSH2 0xC75 PUSH1 0x20 DUP4 ADD DUP6 PUSH2 0xC44 JUMP JUMPDEST PUSH2 0xC82 PUSH1 0x40 DUP4 ADD DUP5 PUSH2 0x844 JUMP JUMPDEST SWAP5 SWAP4 POP POP POP POP JUMP JUMPDEST PUSH1 0x0 PUSH1 0x40 DUP3 ADD SWAP1 POP PUSH2 0xC9F PUSH1 0x0 DUP4 ADD DUP6 PUSH2 0x844 JUMP JUMPDEST PUSH2 0xCAC PUSH1 0x20 DUP4 ADD DUP5 PUSH2 0x998 JUMP JUMPDEST SWAP4 SWAP3 POP POP POP JUMP JUMPDEST PUSH32 0x4E487B7100000000000000000000000000000000000000000000000000000000 PUSH1 0x0 MSTORE PUSH1 0x32 PUSH1 0x4 MSTORE PUSH1 0x24 PUSH1 0x0 REVERT INVALID LOG2 PUSH5 0x6970667358 0x22 SLT KECCAK256 BASEFEE DUP7 CREATE2 PUSH2 0x6EEA DUP4 MSTORE 0xC1 ADDMOD 0xE2 0xD4 JUMPI 0xC5 0x24 BYTE MULMOD DELEGATECALL 0xB5 PUSH17 0xAE75E0DB3B937B30E15816F564736F6C63 NUMBER STOP ADDMOD SHL STOP CALLER "},"methodIdentifiers":{"checkDeadline(uint256)":"a6990946","createFundraiser(address,uint256,uint256)":"b56b1fd6","donate(uint256)":"f14faf6f","fundraiserCount()":"37cd0940","fundraisers(uint256)":"f38f72fb"}}}}}