{
  "_format": "hh-sol-artifact-1",
  "contractName": "CharityCrowdfunding",
  "sourceName": "contracts/CharityCrowdfunding.sol",
  "abi": [
    {
      "anonymous": false,
      "inputs": [
        {
          "indexed": false,
          "internalType": "uint256",
          "name": "id",
          "type": "uint256"
        },
        {
          "indexed": false,
          "internalType": "address",
          "name": "donor",
          "type": "address"
        },
        {
          "indexed": false,
          "internalType": "uint256",
          "name": "amount",
          "type": "uint256"
        }
      ],
      "name": "DonationReceived",
      "type": "event"
    },
    {
      "anonymous": false,
      "inputs": [
        {
          "indexed": false,
          "internalType": "uint256",
          "name": "id",
          "type": "uint256"
        },
        {
          "indexed": false,
          "internalType": "bool",
          "name": "success",
          "type": "bool"
        }
      ],
      "name": "FundraiserClosed",
      "type": "event"
    },
    {
      "anonymous": false,
      "inputs": [
        {
          "indexed": false,
          "internalType": "uint256",
          "name": "id",
          "type": "uint256"
        },
        {
          "indexed": false,
          "internalType": "address",
          "name": "recipient",
          "type": "address"
        },
        {
          "indexed": false,
          "internalType": "uint256",
          "name": "goalAmount",
          "type": "uint256"
        },
        {
          "indexed": false,
          "internalType": "uint256",
          "name": "deadline",
          "type": "uint256"
        }
      ],
      "name": "FundraiserCreated",
      "type": "event"
    },
    {
      "inputs": [
        {
          "internalType": "uint256",
          "name": "id",
          "type": "uint256"
        }
      ],
      "name": "checkDeadline",
      "outputs": [],
      "stateMutability": "nonpayable",
      "type": "function"
    },
    {
      "inputs": [
        {
          "internalType": "address payable",
          "name": "_recipient",
          "type": "address"
        },
        {
          "internalType": "uint256",
          "name": "_goalAmount",
          "type": "uint256"
        },
        {
          "internalType": "uint256",
          "name": "_duration",
          "type": "uint256"
        }
      ],
      "name": "createFundraiser",
      "outputs": [],
      "stateMutability": "nonpayable",
      "type": "function"
    },
    {
      "inputs": [
        {
          "internalType": "uint256",
          "name": "id",
          "type": "uint256"
        }
      ],
      "name": "donate",
      "outputs": [],
      "stateMutability": "payable",
      "type": "function"
    },
    {
      "inputs": [],
      "name": "fundraiserCount",
      "outputs": [
        {
          "internalType": "uint256",
          "name": "",
          "type": "uint256"
        }
      ],
      "stateMutability": "view",
      "type": "function"
    },
    {
      "inputs": [
        {
          "internalType": "uint256",
          "name": "",
          "type": "uint256"
        }
      ],
      "name": "fundraisers",
      "outputs": [
        {
          "internalType": "address payable",
          "name": "recipient",
          "type": "address"
        },
        {
          "internalType": "uint256",
          "name": "goalAmount",
          "type": "uint256"
        },
        {
          "internalType": "uint256",
          "name": "deadline",
          "type": "uint256"
        },
        {
          "internalType": "uint256",
          "name": "amountRaised",
          "type": "uint256"
        },
        {
          "internalType": "bool",
          "name": "closed",
          "type": "bool"
        }
      ],
      "stateMutability": "view",
      "type": "function"
    }
  ],
  "bytecode": "0x6080604052348015600f57600080fd5b50610d188061001f6000396000f3fe60806040526004361061004a5760003560e01c806337cd09401461004f578063a69909461461007a578063b56b1fd6146100a3578063f14faf6f146100cc578063f38f72fb146100e8575b600080fd5b34801561005b57600080fd5b50610064610129565b6040516100719190610853565b60405180910390f35b34801561008657600080fd5b506100a1600480360381019061009c919061089f565b61012f565b005b3480156100af57600080fd5b506100ca60048036038101906100c5919061092a565b6101eb565b005b6100e660048036038101906100e1919061089f565b6102e1565b005b3480156100f457600080fd5b5061010f600480360381019061010a919061089f565b61051e565b6040516101209594939291906109a7565b60405180910390f35b60015481565b8060008082815260200190815260200160002060040160009054906101000a900460ff1615610193576040517f08c379a000000000000000000000000000000000000000000000000000000000815260040161018a90610a57565b60405180910390fd5b6000808381526020019081526020016000206002015442106101e7576101e68260008085815260200190815260200160002060010154600080868152602001908152602001600020600301541015610581565b5b5050565b600160008154809291906101fe90610aa6565b9190505550600080600060015481526020019081526020016000209050838160000160006101000a81548173ffffffffffffffffffffffffffffffffffffffff021916908373ffffffffffffffffffffffffffffffffffffffff16021790555082816001018190555081426102739190610aee565b816002018190555060008160040160006101000a81548160ff0219169083151502179055507f4b54696510e948513db22b55242041175ae8be7658712a4da84b83eee7c336fd600154858584600201546040516102d39493929190610b81565b60405180910390a150505050565b8060008082815260200190815260200160002060040160009054906101000a900460ff1615610345576040517f08c379a000000000000000000000000000000000000000000000000000000000815260040161033c90610a57565b60405180910390fd5b60008060008481526020019081526020016000209050806002015442106103a1576040517f08c379a000000000000000000000000000000000000000000000000000000000815260040161039890610c12565b60405180910390fd5b60008160050160003373ffffffffffffffffffffffffffffffffffffffff1673ffffffffffffffffffffffffffffffffffffffff16815260200190815260200160002054036104505780600601339080600181540180825580915050600190039060005260206000200160009091909190916101000a81548173ffffffffffffffffffffffffffffffffffffffff021916908373ffffffffffffffffffffffffffffffffffffffff1602179055505b348160050160003373ffffffffffffffffffffffffffffffffffffffff1673ffffffffffffffffffffffffffffffffffffffff16815260200190815260200160002060008282546104a19190610aee565b92505081905550348160030160008282546104bc9190610aee565b925050819055507f0b5b4c52969ff7329ecf7ee536409fda87812b15a8622bc6e8cdeab3aee14a268333346040516104f693929190610c53565b60405180910390a1806001015481600301541061051957610518836001610581565b5b505050565b60006020528060005260406000206000915090508060000160009054906101000a900473ffffffffffffffffffffffffffffffffffffffff16908060010154908060020154908060030154908060040160009054906101000a900460ff16905085565b8160008082815260200190815260200160002060040160009054906101000a900460ff16156105e5576040517f08c379a00000000000000000000000000000000000000000000000000000000081526004016105dc90610a57565b60405180910390fd5b6000806000858152602001908152602001600020905060018160040160006101000a81548160ff0219169083151502179055508215610692578060000160009054906101000a900473ffffffffffffffffffffffffffffffffffffffff1673ffffffffffffffffffffffffffffffffffffffff166108fc82600301549081150290604051600060405180830381858888f1935050505015801561068c573d6000803e3d6000fd5b5061069c565b61069b846106db565b5b7fc83325f9cf6b1978f8e9eca15ddefc1ac695535caec81c73db0b49907e98e4fd84846040516106cd929190610c8a565b60405180910390a150505050565b6000806000838152602001908152602001600020905060005b816006018054905081101561083557600082600601828154811061071b5761071a610cb3565b5b9060005260206000200160009054906101000a900473ffffffffffffffffffffffffffffffffffffffff16905060008360050160008373ffffffffffffffffffffffffffffffffffffffff1673ffffffffffffffffffffffffffffffffffffffff16815260200190815260200160002054905060008111156108265760008460050160008473ffffffffffffffffffffffffffffffffffffffff1673ffffffffffffffffffffffffffffffffffffffff168152602001908152602001600020819055508173ffffffffffffffffffffffffffffffffffffffff166108fc829081150290604051600060405180830381858888f19350505050158015610824573d6000803e3d6000fd5b505b505080806001019150506106f4565b505050565b6000819050919050565b61084d8161083a565b82525050565b60006020820190506108686000830184610844565b92915050565b600080fd5b61087c8161083a565b811461088757600080fd5b50565b60008135905061089981610873565b92915050565b6000602082840312156108b5576108b461086e565b5b60006108c38482850161088a565b91505092915050565b600073ffffffffffffffffffffffffffffffffffffffff82169050919050565b60006108f7826108cc565b9050919050565b610907816108ec565b811461091257600080fd5b50565b600081359050610924816108fe565b92915050565b6000806000606084860312156109435761094261086e565b5b600061095186828701610915565b93505060206109628682870161088a565b92505060406109738682870161088a565b9150509250925092565b610986816108ec565b82525050565b60008115159050919050565b6109a18161098c565b82525050565b600060a0820190506109bc600083018861097d565b6109c96020830187610844565b6109d66040830186610844565b6109e36060830185610844565b6109f06080830184610998565b9695505050505050565b600082825260208201905092915050565b7f46756e6472616973657220697320636c6f7365642e0000000000000000000000600082015250565b6000610a416015836109fa565b9150610a4c82610a0b565b602082019050919050565b60006020820190508181036000830152610a7081610a34565b9050919050565b7f4e487b7100000000000000000000000000000000000000000000000000000000600052601160045260246000fd5b6000610ab18261083a565b91507fffffffffffffffffffffffffffffffffffffffffffffffffffffffffffffffff8203610ae357610ae2610a77565b5b600182019050919050565b6000610af98261083a565b9150610b048361083a565b9250828201905080821115610b1c57610b1b610a77565b5b92915050565b6000819050919050565b6000610b47610b42610b3d846108cc565b610b22565b6108cc565b9050919050565b6000610b5982610b2c565b9050919050565b6000610b6b82610b4e565b9050919050565b610b7b81610b60565b82525050565b6000608082019050610b966000830187610844565b610ba36020830186610b72565b610bb06040830185610844565b610bbd6060830184610844565b95945050505050565b7f46756e647261697365722068617320656e6465642e0000000000000000000000600082015250565b6000610bfc6015836109fa565b9150610c0782610bc6565b602082019050919050565b60006020820190508181036000830152610c2b81610bef565b9050919050565b6000610c3d826108cc565b9050919050565b610c4d81610c32565b82525050565b6000606082019050610c686000830186610844565b610c756020830185610c44565b610c826040830184610844565b949350505050565b6000604082019050610c9f6000830185610844565b610cac6020830184610998565b9392505050565b7f4e487b7100000000000000000000000000000000000000000000000000000000600052603260045260246000fdfea26469706673582212204886f5616eea8352c108e2d457c5241a09f4b570ae75e0db3b937b30e15816f564736f6c634300081b0033",
  "linkReferences": {},
  "deployedLinkReferences": {}
}